:400000000040002011000000F10C0000F10C000010B500F08DFEC04670B51E4C12232360182000F0D9FF1C4A1C4B1A60802252001B4B1A601B4B1C4919601C490A601C4935
:4000400019601C490A601C4A1A60802149011B4A11601B4A1A60822212061A4B1A600025194B1D604222194B1A60013A184B1A60013A184B1A600332174B1A60174907200D
:4000800000F0E0FE072000F0D1FE154B1D601123236070BD300010400600008004010B40080301400000014042FF00800403014041FF00800003014040FF00800C030140CC
:4000C00043FF008008010B4000010B402C010140280101400C010140080101402D1100000C020B4010B572B600240FE02F486200131959000B00411889881A5AC318588895
:400100000004104300F0BAFD0134E4B2012CEDD9264801000C31203000F096FD244A254B1A60254A254B1A60EE221202244B1A6099231B04234A1360234A1360F02189058C
:40014000224A1160224A1360224A136022490B783C22934314221343DBB20B701F4A117816230B43DBB2137050231D4A13601D491D4A11601D4A136062221D4B1A60313A6F
:400180001C4B1A60B1321C4B1A60CF231B4A13601B4A13601B4A1C4B1A60D82292021B4B1A60FFF739FF00F07FFD10BD804C000000000F0F0000024099007006000102405F
:4001C0000003024000500F4010500F4018500F4020500F4030500F4001700F4000700F4000000440B661180008000440180004400001044008010440180104400002044058
:4002000018020440860D0000080304400806044010B5064C2378002B07D1054B002B02D0044800E000BF0123237010BD5001002000000000A04B0000084B10B5002B03D049
:400240000749084800E000BF07480368002B00D110BD064B002BFBD09847F9E70000000054010020A04B0000C000002000000000F8B54F464646C0B44F4B1A6801321A606B
:400280001B79012B00D07AE0002000F0B3FC4B4B1860494B06241C5F002C6ADD651E6A00474BD35E98426AD000B26300444A9852042C5AD1E61E13007200D25E9046271F5A
:4002C0007A00D35E4246D31A002B3EDDA31E5B003B4A9B5E42469A1A002A36DD6A003849525ED31A31D5801A2FD5334B99461A889B68D31849468889181A80B2314B188054
:400300008A8100238B6003F0A7FE2F4A2F4B03F0B5F800222E4B03F0B1F803F033FF011C2C4B1860FE20800501F0C0FE2A4B18604B469B7B0133DBB24A469373052B04D1CF
:400340004B460122DA7300229A731D4B7F004246FA52A21E5200D15E7600F1526D00E95ED1526400E25EEA5209E00134124BDC8005E06200124BD05201340F4BDC80174BF7
:400380001B78012B03D10C4A137C013313740A4B1B68642B08D1084A91688C46634493600023136001335374012001F057F90CBC90469946F8BDC0466C010020EC0100204E
:4003C000F0010020E80100201292F2809F5E763E00C0A240FC010020E00100200002002070B504000D00100001F072F9280001F07BF9200001F084F970BDC0460122014BDB
:400400001A7170476C010020034BDB7B002BFBD00022014B1A7170476C0100200122034B1A700022024B1A747047C046000200206C01002010B50400006803F04FFE044AF3
:40044000044B03F01BF803F09DFE206010BDC0464F53701D88D1383FF0B55F4656464D464446F0B4724CA54412901391149215930025002311930793069305930493039381
:400480000293019300938CE0002000F0B3FB03B21A006C00FA235B0116A98C4663440892E252012000F0A6FB03B29B46614B16AA944663445946E152022000F09BFB03B238
:4004C0009A465D4B16AA944663445146E152032000F090FB03B29946584B16AA944663444946E152002200210020FFF779FF042000F080FB03B29846FA231B0116AA9446CB
:4005000063444146E152012200210020FFF768FF042000F06FFB07B2494B16AA94466344E752052000F066FB06B2FA23DB0016AA94466344E652062000F05CFB03B219007A
:40054000FFAB44330991E152072000F053FB00B216ABE052009B089A944663440093039B5B440393019B53440193029B4B440293049B43440493059B9C46BC446346059357
:40058000069B9C46B44463460693079B09998C4663440793119B9C468444634611936B1C9DB2284B1A7C284B1B889A4200D26BE70023244A1374254A137008952900009827
:4005C00001F0D4FA09902900039801F0CFFA0A902900019801F0CAFA0B902900029801F0C5FA0C902900049801F0C0FA0D902900059801F0BBFA0E902900069801F0B6FAEB
:400600000F902900079801F0B1FA10902900119801F0ACFA119000239B4607930693059304930393029301939A46D946B5E0C0467CDCFFFF581B0000701700008813000063
:40064000B80B00006C010020E8010020000200205B465B0016AAFA2149015218D25E0999521A12B2904616AAFA21490152184146D15216AAD2495218D25E0A99521A12B21B
:40068000944616AACE4952186146D15216AACD495218D75E0B9ABF1A3FB216AA5218D75216AAC9495218D65E0C9AB61A36B216AA5218D65216AAFA2109015218D55E0D9AD5
:4006C000AD1A2DB216AA5218D55216AABF495218D45E0E9AA41A24B216AA5218D45216AAFA21C9005218D05E0F9A801A00B216AA5218D05216AAFA2189005218D15E109AEF
:40070000891A09B2009116AAFA218900521869460988D15216AA9A5E1199521A12B216A95A5243465B43994463465B439A447F43019B9C46BC44634601937643029B9C46BE
:40074000B444634602936D43039B9C46AC44634603936443049B9C46A444634604934043059B9C4684446346059300994943069B9C468C44634606931300534307998C46B1
:400780009C446346079343465A43914B59698C4662445A6101239C46E344089B9B4500DA56E7D0461D001900484601F0DFF90400200003F051FC00F0F7FF03F0E3FC009009
:4007C0002900404601F0D2F90400200003F044FC00F0EAFF03F0D6FC071C2900019801F0C5F90400200003F037FC00F0DDFF03F0C9FC0190A8462900029801F0B7F9040050
:40080000200003F029FC00F0CFFF03F0BBFC02902900039801F0AAF90400200003F01CFC00F0C2FF03F0AEFC03902900049801F09DF90400200003F00FFC00F0B5FF03F019
:40084000A1FC04902900059801F090F90400200003F002FC00F0A8FF03F094FC05902900069801F083F90400200003F0F5FB00F09BFF03F087FC041C2900079801F076F9C0
:400880000500280003F0E8FB00F08EFF03F07AFC504B16AA944663441B6818604C4E4146706901F063F9050070614A4B16AA944663441B681968009801F012FD061C28009F
:4008C00001F044FE311C01F0F1FB434B16AA944663441B681860391C009801F071FA129D286003F0FBFB3D4A3D4B02F0C7FD03F049FC28600199381C01F062FA139D286070
:4009000003F0ECFB354A364B02F0B8FD03F03AFC28600299381C01F053FA149D286003F0DDFB2E4A2E4B02F0A9FD03F02BFC2860211C039801F044FA159D286003F0CEFB2C
:40094000264A274B02F09AFD03F01CFC2860211C049801F035FA234B16AA944663441B68186003F0BBFB1D4A1D4B02F087FD03F009FC1C4B16AA944663441B681860211C10
:40098000059801F01DFA184B16AA944663441B68186003F0A3FB114A114B02F06FFD03F0F1FB114B16AA944663441B6818600F4B9D443CBC90469946A246AB46F0BDC04662
:4009C000581B00007017000088130000B80B00006C010020582300005C2300007670B03731A4F13F50230000542300008423000070B584B000F022FE714800F05BFE00F05A
:400A000057FD00F065FD00F0F7FB62B6FFF7F6FCFFF7FAFC6B4B1D68281C01F075FD04B26949281C01F05CFC01F06EFD00B2642101F082F90AB22100644800F0F9F8FFF70C
:400A4000EDFC634C2300183322001C32210020312000243025002835039525002C350295260030360196260034360096FFF7F4FC2800FFF7DFFC666A301C01F045FD05B2B5
:400A80005149301C01F02CFC01F03EFD00B2642101F052F90AB229004E4800F0C9F8266A301C01F031FD05B24749301C01F018FC01F02AFD00B2642101F03EF90AB229007D
:400AC000454800F0B5F8E669301C01F01DFD05B23D49301C01F004FC01F016FD00B2642101F02AF90AB229003C4800F0A1F8A669301C01F009FD05B23349301C01F0F0FBBE
:400B000001F002FD00B2642101F016F90AB22900334800F08DF8666B301C01F0F5FC05B22949301C01F0DCFB01F0EEFC00B2642101F002F90AB229002A4800F079F8266B36
:400B4000301C01F0E1FC05B21F49301C01F0C8FB01F0DAFC00B2642101F0EEF80AB22900214800F065F8E66A301C01F0CDFC05B21549301C01F0B4FB01F0C6FC00B264218B
:400B800001F0DAF80AB22900184800F051F8A56A281C01F0B9FC04B20B49281C01F0A0FB01F0B2FC00B2642101F0C6F80AB221000F4800F03DF8FA20800000F07BF925E739
:400BC00071020000E00100200000C842A44B00006C010020BC4B0000D44B0000EC4B0000044C00001C4C0000344C00004C4C0000644C000010B50400012000F073FC0028AD
:400C0000FAD0200000F082FC0100200000F094FC10BDC04600B5B3B00A000100684603F0B1FB002802DD684600F05CFB33B000BD0FB400B583B004A901C90191FFF7EAFF49
:400C400003B008BC04B01847F0B50025002711E0BB00C658F3B2FF22964308E06A008A181478A419527822700135013BDBB2002BF4D10137022FEBD9F0BDC04610B50A0059
:400C8000002103F05EFB10BD064B1B68002803D080221206134301E05B005B08014A13607047C04680033A4010B50323094A1360094A136080221206084B1A60084B094A60
:400CC0001360094A13600022084B1A600120FFF7DBFF10BD300030403000314000003A40CF000C0000033A4040033A40000E3F4010B503F0F1FA03680C2B00D1FEE7FEE7D1
:400D000010B50300084A1068C318084A9A1A802A02DC054A136005E003F0DEFA0C2303600120404210BDC046C40000203802002070B50F4E0F4D13E029686B68AC68002295
:400D400002E001C901C30432A242FAD1E868002202E0002102C304328242FAD11035013E002EE9D103F0BEFAFFF742FEFEE7C04601000000A84E000010B50E4A1368012136
:400D80008B43136000230AE0032B03D89A000A49505800E009489900094A885001332F2BF2D9FFF79FF9034A116801230B43136010BDC0460000104000000000F10C0000A0
:400DC0000000002000230AE00D4A12683F210A400C49C95C8A4201D1033303E001332D2BF2D9032308490868084A02400A60084A944663441B78DBB2064A13607047C0466B
:400E00002CFF0B40AC4C000000002240FFFFFFBFCDF1FF0F28FF0B40034B18688023DB05184000D001207047000022401F2318401E3B8340014A13607047C04600E100E043
:400E400001BE704770B504000D001F2802D90020FFF7F6FF1034A40080239B059C4664442068256070BDC04670B504000E00032902D90020FFF7E4FF1F2C02D90020FFF731
:400E8000DFFF03252540ED00063500F04EFCA408A400074B9C46644421680323AB4099430B003100A9401943216000F042FC70BD00E400E010B5040006E0084B586800F0F0
:400EC0002BFC074B9C46644480231B029C42F4D8024B9868604300F01FFC10BDC80000200080FFFF70B582B000F0CAF800285DD000F01BFC050000230AE02D4A12683F218F
:400F00000A402C49C95C8A4201D1033303E001332D2BF2D903230021274A1160274A1268D20606D1254802681F318A4313390A430260234C2168234A1140234A5A438023AA
:400F4000DB019C466244D20B013A5205520D0B001343A0225203134323601C4B1B680193302000F0E9FB1A4A13688021C9050B4313602668174B1E40002407E00120FFF7CD
:400F800099FF1034A30533430D4A1360EE2CF5D90120FFF78FFFFF239B051E43084B1E60019A0A4B1A60280000F0C3FB02B070BD2CFF0B40AC4C000028FF0B4034FF0B406F
:400FC0000800224000F800C040420F003000104000002240FFFF3FC030B587B0040000F0A4FB0500FFF718FF002803D0FFF7EAFE012100E00021104B1B6800930F4B1B6854
:401000000193033C0E4B1B5D02930E4B1B68039304AA0D4B04936B4605930C4B1A600C480C4A10601B68012901D1FFF75BFF280000F07FFB07B030BD08010B4000010B408F
:40104000AC4C000030001040B6EA000008001040170000800400104010B5034B1B7B584300F05AFB10BDC046C8000020034B1868C0231B02184000D00120704700010B40B7
:40108000034B1B68002B01DA012000E0002070470000224010B500F048FB044A1368C02109020B43136000F044FB10BD00010B4010B500F03AFB08490A68084B1A4080246B
:4010C000E40122430A600A6813408022120213430B6000F02EFB10BD00010B40FF3FFFFF70B5050000F021FB0400FFF7BFFF002803D0FFF7DDFF012100E0002108482840FC
:40110000084A1568084B2B40184310601368012901D1FFF7BFFF200000F00BFB70BDC0460404040010020B40FBFBFBFF10B5244B1B685B0715D5234B5B685B070ED5224BA4
:40114000596A042001401F4C62688A4362605A6A82435A629B69002B00D098470420FFF7BFFF174B1B685B0518D5164B5B685B0510D5154B596A8022D20011401148426802
:401180008A434260596A114A0A405A62DB69002B00D098478020C000FFF7A2FF084B1B685B030CD5074B5B685B0304D5064B1B6A002B00D098478020C002FFF791FF10BDC1
:4011C00010020B40DC000020A8010020FFFBFFFF10B500F075F810BD10B500F01DF810BD10B5044A1368802109060B431360FFF7EFFF10BD0000244010B5064B1B78002B67
:4012000004D1FFF7E9FF0122024B1A70FFF7E8FF10BDC046D0010020154A164B1A600023154A13601549164A1160164A16490A6007201649086016490B600638154908601D
:4012400015490A60154A13600421154A1160154A1360154A1360154A1360154A1360154A1360154A13601268144B1A807047C0460B000002000024404000244001000A00A3
:40128000480024400700008000032440040324401003244044002440000224400402244050002440880E2440C80E2440480F2440080F2440C80F2440880F2440D2010020F3
:4012C00005490B68F0229343603A13430B60034B1A88034B1A60704700010240D2010020880F244070B50500002402E000F04EFA0134285D0028F9D170BDC04670B50321BA
:401300001020FFF7B1FD44491020FFF79BFDFF22424B1A60424B1B68002B01DA414900E04149424A13680B431360414A414B1A60414A424B1A600023414A1360414A42493A
:401340000A6042490A60424A1168802040020143116040490A6802430A603F4A13603F4A136001223E4B1A603E4A11683E4B0B40802189050B431360002249E03B48910086
:401380000C58DC239B01234080182025405D03433748844661440B60E30707D52E480168012393401B041B0C0B43036093002F495B589B0707D529480168012393401B04F3
:4013C0001B0C0B4303609300284959588B0502D58020400001E080204001CB0504D45300002424495C5203E05300002421495C52214B43438021C9008C466344D917490598
:40140000490DCB18DB121BB290001C4943500132072AB3D970BDC0469515000020003A4080033A40C0201010C020001000003A408C00008004003A400000FF0718003A4041
:401440001C003A400200020010003A4014003A4000033A4040033A4028023A4038023A4018023A4030003A40FEFFFFDFDC4C000080003A402402002010270000040200204A
:4014800010B5094B1B68002B0CDB084B1B68002BFBDB054A1368802109060B4313600A20FFF7DAFD10BDC04600003A4008023A4010B5064B1B78002B04D1FFF71FFF0122C4
:4014C000024B1A70FFF7DCFF10BDC046D4010020034A1368802149020B4313607047C04604003A40020083070CD0074B1B680120184001D19307F8D4002804D00122024B72
:401500001A6000E00020704710023A4010B50400072802D90020FFF793FC072C07D8A400044B9C46644420680004000C00E0002000B210BD80013A4070B504000D00072870
:4015400002D90020FFF77CFC63000F4A995A09B2691A09B20D484843002906DDA3000C4A9A58D30F9A18531006E0A300084A9A58D30F9A18521053421818A400044BE158D8
:4015800000F0F4FA00B270BD240200201027000004020020014B1A681A60704710023A400004000C014B18607047C046080120400004000C014B18607047C0461401204040
:4015C00070B504000D0000F0B0F8AC40024B1C6000F0AFF870BDC0460800204010B500F0A4F8064A116801230B43136000F0A1F818210120FFF7E4FF10BDC0460000204048
:40160000014B18607047C0463801204010B580229204084B1A600C22074B1A600120FFF7EFFF96200001FFF7C3FF0020FFF7B8FF10BDC046000120402401204010B5064BBC
:401640001B78002B04D1FFF7E1FF0122024B1A70FFF7C4FF10BDC046D5010020014B18607047C046300120408C23014AD05070470000002010B5040000F057F8044A1368B1
:401680009B009B08A4071C43146000F052F810BD10E400E080221203014B1A607047C04600E100E080221203014B1A607047C04680E100E010B50400FFF7F4FF2000FFF755
:4016C000D3FF0320FFF7D6FFFFF7E4FF10BDC04604490A68D2B210239A43000118401043086070470006044004490A68D2B220239A4340011840104308607047000604405E
:40170000044A1368DBB201218B430840184310607047C046000304400230800803D00138FDD1C046C046C0467047EFF3108072B6704780F31088704770B50400FFF7F5FFC9
:401740000500102C05D8104A136803218B43136016E0202C07D80C490B6803229343023A13430B600CE0302C07D807490B6803229343013A13430B6002E00020FFF760FBFC
:401780002800FFF7D6FF70BD30001040044B1B681F221340082BF9D0024B18607047C0460802244040022440F0B546464F46C0B48DB004000D0000F057F8294B0090019134
:4017C0001B785BB29846013312D022002B002000290002F021FC8146002809D10026002732003B002000290000F0C2FA002806D1009801990DB00CBC90469946F0BD0123FC
:401800000293184B0694079503934B460A93434604940595002B15D03B0032003000390001F008FA434608900991022B0CD102F053FD212303600A9B0093002B0AD1089896
:401840000999D7E70896099702A800F003F90028F1D1ECE702F040FD0A9B00930360EEE7E4000020044D0000F0B556464D4644465F46754BF0B40A000D00190083B00600B3
:4018800004002940994200D1BAE0002D00DC94E02D1500D1A3E06D4B12039C468023120B5B0365441A43EB0700D581E06B109846E30F9B189B18802216210026002764002C
:4018C0009203B818984202DC87181B1AB618E00F5B0001391B18640052080029F1D1002201929446802212062020914609E09F4241D0E10FC9180138CB18640052080028BB
:401900001ED0614651189F42F1DA8D18AC46CD0FED07BA464D4539D0DB1B8C42BF417F42DB1B641A019901388B46934459460191E10FC9185746CB18640052080028E0D16E
:4019400023432BD1019B5B08414972108C466244F10702D5802109060B43414609058D181E002F003000390003B03CBC90469946A246AB46F0BDA1420ED88D18AC46CD0FA3
:40198000ED074D4548D09A460023CAE76546002DC2DB7D1CAA46BFE73B00AAE7019B01333ED0019A01239446134063445B08CBE7E30F52009A18640078E76B005B08034312
:4019C0002F00002BCED00025002A31D1E20A153D6405002AFAD080235B031A4223D180200023400300E00B005200591C0242FAD02020401AED1A2300C3408C401A434AE7CB
:401A000002002B00290001F039FD32002B0000F0E5FD06000F00A5E76546002DB9DAB2E70136002390E7012320205B420021E1E73B000200390001F09BFF02000B0001F09B
:401A4000F9F806000F008DE70000F07F01FCFFFF0000E03F00207047002243088B4274D303098B425FD3030A8B4244D3030B8B4228D3030C8B420DD3FF22090212BA030C76
:401A80008B4202D31212090265D0030B8B4219D300E0090AC30B8B4201D3CB03C01A5241830B8B4201D38B03C01A5241430B8B4201D34B03C01A5241030B8B4201D30B032B
:401AC000C01A5241C30A8B4201D3CB02C01A5241830A8B4201D38B02C01A5241430A8B4201D34B02C01A5241030A8B4201D30B02C01A5241CDD2C3098B4201D3CB01C01A27
:401B0000524183098B4201D38B01C01A524143098B4201D34B01C01A524103098B4201D30B01C01A5241C3088B4201D3CB00C01A524183088B4201D38B00C01A524143080D
:401B40008B4201D34B00C01A5241411A00D20146524110467047FFE701B5002000F0F0F802BDC0460029F7D076E7704703460B437FD4002243088B4274D303098B425FD325
:401B8000030A8B4244D3030B8B4228D3030C8B420DD3FF22090212BA030C8B4202D31212090265D0030B8B4219D300E0090AC30B8B4201D3CB03C01A5241830B8B4201D302
:401BC0008B03C01A5241430B8B4201D34B03C01A5241030B8B4201D30B03C01A5241C30A8B4201D3CB02C01A5241830A8B4201D38B02C01A5241430A8B4201D34B02C01A31
:401C00005241030A8B4201D30B02C01A5241CDD2C3098B4201D3CB01C01A524183098B4201D38B01C01A524143098B4201D34B01C01A524103098B4201D30B01C01A5241B2
:401C4000C3088B4201D3CB00C01A524183088B4201D38B00C01A524143088B4201D34B00C01A5241411A00D201465241104670475DE0CA0F00D04942031000D34042534078
:401C800000229C4603098B422DD3030A8B4212D3FC22890112BA030A8B420CD3890192118B4208D3890192118B4204D389013AD0921100E08909C3098B4201D3CB01C01AF9
:401CC000524183098B4201D38B01C01A524143098B4201D34B01C01A524103098B4201D30B01C01A5241C3088B4201D3CB00C01A524183088B4201D38B00C01A5241D9D2EC
:401D000043088B4201D34B00C01A5241411A00D20146634652415B10104601D34042002B00D54942704763465B1000D3404201B5002000F005F802BD0029F8D016E7704766
:401D40007047C0468446101C62468C46191C634600E0C0461FB501F027FB002801D40021C8421FBD10B501F07BFA4042013010BD10B501F019FB002801DB002010BD012000
:401D800010BDC04610B501F00FFB002801DD002010BD012010BDC04610B501F0A1FA002801DC002010BD012010BDC04610B501F097FA002801DA002010BD012010BDC04647
:401DC000F8B54A02430244004E00C50F240E28009B09360EC90F92098D4259D0A01B002800DC8DE0002E1AD1002A00D079E05A0704D00F221A40042A00D004335A0138D59D
:401E00000134FF2C00D189E028009B015B0AE4B25B02E4055B0A2343C0071843F8BDFF2CE5D08021C9040A431B2800DD89E016002021C640081A8240511E8A4132439B1A98
:401E40005A0114D59B019E09300002F027FA05388640844265DC041B330020200134E340041BA640721E964100243343BFE75A07BFD1DF082800FF2C2FD1002F00D187E066
:401E80008022D20313003B435B025B0AFF24BFE7A11B002949DD002E29D0FF2CA7D08026F60432431B2900DD8DE017002026CF40711A8A40511E8A413A439B185A01D6D5E7
:401EC0000134FF2C64D0012276491A405B080B4013438CE7031ECAD100207B025B0AE4B296E701380028AAD0FF2C9DD17FE7002A00D17CE701390029DFD0FF2CD2D176E755
:401F0000002820D1601CC0B2012853DD80279E1AFF0437402FD0D61A0D0095E72800002376E7614B241A334061E700294DD1611CCEB2012E2FDDFF292AD09B185B080C00E0
:401F400055E701227BE7002C1BD1002B5BD0C04300280CD0FF2E7ED01B2800DD92E01D002024C540201A8340581E83412B43D31A34000D0064E7002E00D065E7002000240C
:401F8000ABE7FF2E67D08024E40440422343E3E7FF2400233CE7002C61D1002B7ED0002A00D124E79B185A0100D460E73E4A0C0013401CE7002C1ED1002B2FD1002A66D0EE
:401FC00013000D0013E7012277E7002C1FD1002B5AD0C94300290BD0FF2E50D01B295FDC1F002024CF40611A8B40591E8B413B439B18340062E7002B1CD1002A4AD01300E1
:402000000D00FF24F3E6130034000D00EFE6FF2E35D08024E40449422343DFE7002A00D1E5E68027981AFF04074000D152E7D31A0D00DCE6FF24002A00D1D8E68020DB086B
:40204000C003034204D0D208024201D113000D00DB00FF24CBE61300FF240D00C7E6002B0DD0FF24002A00D1C1E68021DB08C9030B42EDD0D2080A42EAD11300E8E71300D8
:40208000FF24B4E6012372E713003400AFE60027002022E780270020FF03F1E61300A6E60123A5E7FFFFFF7DFFFFFFFBF0B5564644465F464D46F0B444024600C70F83B01D
:4020C0008846650A360EBA463DD0FF2E22D00023EC00802599469B46ED0425437F3E43465C025800DB0F640A000E984636D0FF2830D080230021E400DB041C437F38301A12
:402100000190484642460843724E800030587A4013008746002D44D108239946063B9B46DDE70122FF2000241A406402C305640AD2071C431443200003B03CBC90469946AE
:40214000A246AB46F0BD002D20D104239946033B9B46C4E7002C17D1022102E0002C0AD10121321A01924A4643460A435A48920082587B409746200002F090F8431F76301C
:402180009C4040420021BAE70321B8E7280002F085F8431F9D4000237630464299469B469DE70C239946093B9B4698E780240022E403FF20B9E70024C2468B465A4653467D
:4021C000022AAED0032A7DD0012A31D1012200201A400024A9E70122101A1B2856DD1A4000200024A1E78023DB031D424BD18023DB032B435C02640A3A00FF2095E76D015A
:402200006001854230D2019A0024013A01921B220127290064006D00002901DBA84201D82D1A3C43013A002AF3D16A1E95412C4301987F300028CEDD620704D00F22224019
:40224000042A00D00434220103D5244A019814408030FE2800DD64E70122A401640AC0B21A4062E72C00A9E72D1A1A220124CFE76B02BCD500248023DB031C436402640A99
:402280004246FF2051E71C42B3D1F4E721002022C140101A8440621E94410C43620704D00F222240042A00D00434620104D5012201201A40002438E70122A401640A1A40D9
:4022C000002032E78023DB031C436402640A5246FF202AE70C4D00004C4D0000FFFFFFF7F0B557464E4645464300E0B446028846760A1F0EC40F002F47D0FF2F25D00023E9
:4023000080259A469946F600ED042E437F3F434642465D02D20F5B006D0A1B0E904640D0FF2B39D080220020ED00D20415437F3BFB1842465746591C62408C4607430F2F7E
:402340005CD86F49BF00C9598F46002E45D108239A46063B9946DAE7424602282DD0032800D1C3E0012800D0A2E0002500260240D4B27602ED05760A2E43E40726433000D0
:402380001CBC90469946A246F0BD002E1AD104239A46033B9946BAE72A00511E8A41901CC6E70120002DC3D0280001F077FF431F76309D4043420020BAE70124FF25144028
:4023C0000026D6E7300001F069FF431F9E400023763047429A46994699E70C239A46093B994694E780260024F603FF25C1E735004846B2E7350022004846AEE72904090C4C
:402400000800370C3604360C2C0C7943704367437443060C64183619B14203D980214902884647440004000C310409188D01681E8541890E2943350CED19AD010D4329012A
:4024400004D5012369081D4063460D4319007F31002925DD680704D00F202840042800D00435280103D5274980330D401900FE29A3DC0124AD016E0A1440CDB279E7802047
:40248000C003064207D0054205D128434602760A4446FF256DE706437602760AFF2568E70124611A1B2905DD14400025002660E76346CBE72E002023CE40591A8D406B1EE5
:4024C0009D412E43730704D00F233340042B00D00436730104D5012401251440002648E70124B601760A1440002542E780260124F6032E437602760A1440FF2539E7C04657
:402500008C4D0000FFFFFFF74302590A4300C20F1B0E00207E2B0EDD9D2B0DDC802000040143952B0BDC9620C31AD9400B005842002A00D118007047034BD018FBE7963BF1
:4025400099400B00F3E7C046FFFFFF7F70B5002830D0C317C5185D40C40F280001F09EFE9E231B1A962B0DDC9622D21A95406A02520AD8B25202C005520AE407024322437D
:40258000100070BD992B19DC9922D21A9540124A2A40690704D00F210D40042D00D00432510103D50C4B1A409F231B1A9201520AD8B2DFE7002400200022DBE705222E005D
:4025C000121AB921D6402A00C91A8A40551EAA4135001543DBE7C046FFFFFFFBF8B556465F464D464446F0B40F00FD0FAA4609037C002E005F00450F490A7F0D2943C5000A
:402600001803BC46400A570F640DDB0F3843D2009A4500D1AAE06646A61B002E00DCFFE06346002B39D10300134300D0D9E06B0709D00F232B40042B05D02B1DAB42AD41C6
:402640006D4249191D000B0200D482E0CA4B01349C4200D1FEE00A005646C84BED081A405007640552020543120B640D002112030B0D1B056405120B1A436308C04CF6075B
:4026800014401C43640064083443280021003CBC90469946A246AB46F8BDB74B9C42C6D080231B041843382E00DDEBE01F2E00DD1EE120239B1B9C4603006746BB4098466E
:4026C00013004746F3403B436746BA40571EBA4113430200F240EB1A9D42B6411D008A1A7642911B0B0231D54A02560A002E00D1B4E0300001F0D2FD0300083B1F2B00DD39
:40270000B5E020222900D21AD1409E400A009D4032439C4200DDB1E01C1B631C1F2B00DDD5E0202114002800C91A8C40D8408D400443DA40681E854111002543002476E7CC
:402740004146314300D134E2310045466B0700D06FE756464807ED08C9080543864B9C4235D00A036405120B640D7FE76346E31A9B46002B00DC8BE06746002F3CD07E4F5E
:40278000BC4200D153E780273F0438435B46382B00DCF7E00243501E82410020D2B253194218AB4289411D00494289180B02CDD5714B01349C4200D13DE101206F4A6B085A
:4027C0000A4028401843D507054351082FE72B000B4300D1CBE180231B030B431A03120B44E7013E002E6DD1AE1AB5429B41091A5B42C91A350075E70700174300D116E726
:4028000001235B429C46E3445B46002B00D0E0E0AA18AA429B4109185B4259181500C5E7002E75D1661C7605760D012E00DCF3E0AE1AB0464545BF410E1A7F42F61B3702AB
:4028400000D48FE0551BAA42B641411A76428E1B9A464BE756460022002507E7280001F01DFD20300300083B1F2B00DC49E72A002838824000259C4200DC4DE73F49E41A1F
:402880001140D4E60243501E8241D3B2002222E7002B00D0F3E0631C9C465B055B0D012B00DC9FE0344B9C4500D1C3E0AA180918AA42804140424118CD0752081543490853
:4028C0006446B4E62C4B9C4200D0ECE6AFE611001F3CE1400C00202B00D17FE04021CB1A9A4015436A1E95410021254300242DE733000700203BDF403B00202E70D0402779
:40290000BE1BB0400243501E824113430022E2E6002C4FD0184CA44500D1ABE08024240476422143382E00DDDFE01F2E00DD43E12027BC1BA1460C004F46BC40A0462C0038
:402940004746F4403C434F46BD406F1EBD41F1402C43151BAA429241411A5242891A64469A46BFE641464546314300D0BEE6002600240025F2E6C046FF070000FFFF7FFFE1
:40298000FFFF0F801F2B59DC2027FF1ABC46070063469F405B46B9461700DF40B8464F4643461F4363469A40531E9A415B463A43D840F4E60C002C435CD0F643002E55D1B3
:4029C000551BAA42A441411A6442091B9A46644688E6964FBC4200D0D8E628E6002280E700208FE70B002B43002C00D0C2E0002B00D101E10300134300D118E6AB18AB420E
:402A0000B6410918764271180A0200D409E1884A1D00114064460AE6002C5BD10E002E4300D08AE00100114300D1C2E0010015009A46FCE56446002100258FE620235B42A4
:402A40009C46DC4463460700DF405B46BC46202B00D1ACE040235F46DB1B98400243501E8241634613431A00002098E66F4CA44500D057E70100150064469A46D7E5002CFD
:402A800039D10C002C436ED0DB43002B1AD0674CA44568D0382B00DDA4E01F2B00DDAEE020240F00E41AA740B9462F00DF40B846A3464F46444627435C46A5406C1EA541E7
:402AC000D9403D43AD1895429B4109185B42591864466BE60C002C4315D1010011437BD0010015009A46514CA1E50D43691E8D410021ECB22DE74D4CA44534D080242404B7
:402B00005B422143C6E7040014434ED0ED084C072C438025C9082D03294208D0C6082E4205D1D208410711430C009A463100620FC900E50011433D4C79E50600164300D19D
:402B400075E5AE1AB0464545BF410E1A7F42F61B370200D4F4E5551BAA42B641411A7642891B9A4663E50100150064465FE5002200257BE5002B3BD00300134315D0ED088D
:402B80004B072B438025C9082D03294207D0C4082C4204D141070B002100D2081343C9005A0F1143DD00214C41E5204C3FE5002054E700260025D1E534000F00203CE74012
:402BC0003C00202E2BD04027BE1BB1400D43691E8D4100212C43BCE6802100260903134C0025BBE50D43691E8D410021EDB269E7010015000D4C1AE50100150017E51C0000
:402C00000F00203CE7403C00202B0CD04027FB1A99400D43691E8D410021254352E70021D4E71D0092E50021F3E7C046FF070000FFFF7FFFF0B556464D4644465F46F0B449
:402C40001D000E034C00CB0F87B0070092468146360B640D98466AD06D4B9C4235D08022430F12041343F6001E43C3009946694B00279C460023644402932B0368001B0B8C
:402C8000ED0F51469B46400D009500D178E0604B98426CD05B46DA004B0F802109040B4313439B465346D9005A4B9C46002360444246201A6A40924601901F430F2F00D9BE
:402CC000B0E05548BF00C0598746374300D088E0002399460233082700260293CDE74346B34649460093029B009A9246022B00D0BFE1002153460122002689461A40444B70
:402D0000002136030C0D2405360B2643434C1B0526401E437600D207760816434846310007B03CBC90469946A246AB46F0BD330003434FD0002E00D1BCE1300001F0AEFA0B
:402D400003000B3B1C2B00DDADE11D220100D31A08393A008F408E40DA40B9461643304B00279C46002360444442029385E753465A4613432CD1002300219B46023397E76B
:402D80000B4320D05B46002B00D19EE1584601F085FA03000B3B1C2B00DD8FE102005946083A91408B461D21CB1A5146D9400B0059460B4351469B469140194B9C4660444B
:402DC0004042002374E7002300219B4601336FE703236DE70023994601330427002602934BE703230C27029347E70122D51A382D00DCB0E153461A40002100230026894630
:402E00007EE700238026994600223603004B77E7FF07000001FCFFFFCC4D0000FFFF0F80F30300005E4500D972E100D16DE1019B4D46013B01930023340002935B461E024A
:402E40000B0E1E430B020393330C994633041B0C494620000093FEF7FFFD009B370043430600494620009846FEF77CFE2C0C09040C43A04509D9E419731EA74200D95CE144
:402E8000A04500D859E1023EE4194346E41A49462000FEF7E1FD0300009A80465343494620009B46FEF75EFE2A040904120C0A4393450DD94346D219013B974200D93AE11A
:402EC000934500D837E102235B429C46D219E0445B46D21A4346360433439B460399180C0B0C1D00059309045B46090C0C001B041B0C4443049159436B4368431B190D0CB1
:402F0000EB189C4203D980246402A44660441C0C09041B04090C20185D18824200D2DEE000D1D7E0161A029B9C465D1BAC459B415B42F61AB74200D106E149463000FEF744
:402F40008BFD009B04004343494630009846FEF709FE2E0C09040E43B04509D9F619631EB74200D9F3E0B04500D8F0E0023CF6194346F31A494618000293FEF76DFD009BB1
:402F800006004343494602989846FEF7EBFD2D0409042D0C0D43A84509D9ED19731EAF4200D9D6E0A84500D8D3E0023EED192404210043463143049E059A3000ED1A0B0469
:402FC0000C0C1B0C58436643534354439A19030C9B189E4203D980225202944664441A0C00041B04000C14191B18A54250D34DD001231943964A019B94466344002B00DC18
:40300000F3E64A0709D00F220A40042A05D00A1D8A42894149428B4411005A46D20108D55A468C4B1A4093468022D2009446019B6344894A934200DD5BE65A46C9085007CE
:4030400008435602514601225B058146360B5B0D0A4055E680231B031E4211D05A461A420ED15E461E433603360B2A0089467B4B46E6032B00D1E1E0012BBBD11A40BBE6E4
:403080001E433603360B4246744B39E6002BB1D07D194A1EAF4252D91100A542A8D1039A9A42A5D1A6E703003E00283B9E400023994654E601F0F2F8203041E60300524671
:4030C000283B9A400021934677E6504601F0E6F820305EE6029B0026AB4200D323E7039E0299B44661448846B045B6415B467642F619B218013B0291974213D290424FD869
:4031000000D18EE0161A9B460DE7894500D28EE674084B46F60735005B081D434B46DB0702938BE69742EDD10399029CA142E5D93E1A9B46F7E69846CAE61E00A5E6AC420F
:403140003ED874D0110053E70121494252E71C000EE71E002BE71F2D3CDC20230A0058465B1B9840EA4099400243481E81415E461143EE404B0709D00F230B40042B05D0A4
:403180000B00191D99429B415B42F61833023CD55346012200211A40002601238946AFE502235B429C46039CE344A446029B63449846A045B6417642F6190293B218B1E633
:4031C00003988A1E41008142B6417642F619AD19039161E71F225242D31A5A46DA401300202D29D040225846551BA8400143481E814107200B4318400026002809D00F226A
:4032000000261A401900042ABBD10B0070077602360BDB0803439946012253461A4000236EE502998D42BBD89B4600267BE603989842C5D3110032E70020D7E780265B46AB
:4032400036031E433603360B009A8946034B57E5FF030000FFFFFFFEFE070000FF070000F0B55F4656464D464446F0B41F035C00DB0F9A46194B0E034D00C90F8046360BAF
:403280006D0D8B4691463F0B640D9D4219D0134B9C421BD00123A54206D018003CBC90469946A246AB46F0BDBE42F6D1C845F4D1D34510D0002DF0D1304303005A1E9341D5
:4032C000EBE7310001230143E7D1E0E73A430123002AE2D1DEE70023DFE7C046FF070000F0B55F46444656464D46F0B41F033C0B2C4F0E034D00A3465C008446360B6D0DF9
:40330000C90F9046640DDB0FBD422BD0254FBC422ED0002D0ED130430700814678427841002C17D15F463A4314D14B460020002B0AD006E0002C02D15846024301D0994215
:403340001AD00123484218433CBC90469946A246AB46F0BD0028F2D058425841012240421043F1E737000743D0D002204042EBE75F461743CDD0F8E7A542E2DC05DB5E4500
:40338000DFD808D000205E45DED248424841012340421843D8E7C445D3D80020C445F4D3D2E7C046FF070000F0B55F464D4644465646F0B41C03240BA4462F4C0F034D0016
:4033C0005E00C90F80463F0B6D0D8B469146760DDB0FA54220D0284CA64222D0002D12D1384344424441002E20D0002C0DD05C42634101245B421C4320003CBC90469946E6
:40340000A246AB46F0BD002E17D05B4519D05B465C4201231C43EFE7390002240143EBD1D9E7614602241143E6D1D7E761460A43DBD100240028DFD0E9E761460A43E4D107
:40344000E5E7B54203DD01225C421443D4E7B542CDDB6745DBD809D000246745CCD259464C426141012449420C43C5E7C845CED80024C845F3D3BFE7FF070000F0B55F4677
:4034800056464D464446F0B40D0399464E002B0B87B00700924680469B46760DCC0F002E69D06D4B9E4235D05B468022DD001204430F13432B439B46C3009846674B002776
:4034C0009C460023664401934A4615035000D20F53462D0B400D914600D176E05E4A90426CD080225B0F120413435C4AED0094461D4353460022DB00604449463618701CF6
:403500006140029017430F2F00D9AFE05448BF00C759BF465B461F4300D088E000239B469846023308270193CEE74946022A6AD0032A00D109E2012A00D0BBE11140002226
:40354000002300259046CCB200212D030A0D12052D0B1543434A1B0515401D436D00E4076D0825434046290007B03CBC90469946A246AB46F0BD034352D05B46002B00D16B
:403580008AE1584600F08AFE03000B3B1C2B00DD7BE11D22D31A3A0001005D46DA4008398D4013008F402B439B46B8462E4B00279C46002360444642019385E752462A438A
:4035C0002CD100250023022297E752462A4321D0002D00D154E1280000F060FE03000B3B1C2B00DD46E11D21CB1A51460200D9405346083A954093400D431B4A9446604426
:403600004042002279E7012400220C40124B0025904699E70025002301226EE703226CE700239B4698460133042701934CE703230C27019348E700238025984600242D03C5
:40364000054B81E75D464346019A6FE75D4643462100019A6AE7C046FF07000001FCFFFF0C4E0000FFFF0F80F30300004246120C91461A0C9446424617044A461B041B0C62
:403680005A43604690464A4642431000039262461C003F0C7A437C4342440192220C9246019A5244904506D98246802040028046C24450460390100C049048462404240C73
:4036C0001204121905922A0C2D042D0C68432C00824648467C4350438146200C8046574357444744BA4503D9802040028046C144380C3F04B84648442404240C019004983C
:40370000A044404404905846000C814658460404200C8246070048465F434C464343604660436446834650464443380C8446E4186444A34203D980235B029C46E344484650
:403740003F04230C3F0C2404E419574668436F4384464D46504655434243380C814662444A445B44944503D9802040028446654403983F04834604983F0C8446E344C345EE
:40378000804140428246100484460198674484466744A344BC46A345A4419946D44464428742BF41D4458041E144A04699459B417F424042C8440743120CBA18A045A44159
:4037C0005F423B0064422343D71843467D19DB0D6D021D435B465A02059B1A43531E9A415B46DB0D1A4343465B021343EA0107D501225C0813402343EA07029E13436D0851
:40380000574AB218002A4BDD580709D00F201840042805D0181D98429B415B42ED180300E80104D54F4A15408022D200B2184E48824200DDE7E60124DB08680718436D0248
:40384000530580462D0B5B0D0C407DE6802259461203114208D0154206D115432D0398462D0B4C46414B6FE65D4615432D032D0B3E4B69E603005546283B9D400023BCE63D
:40388000504600F00BFD2030A8E60300283B9F400023BB46984689E600F000FD203073E60124A61A382E07DD00220C4000230025904649E6029EA3E71F2E20DC20222C0085
:4038C0001800921BF040944093400443581E83411C43F540630709D00F232340042B05D023001C1D9C4292415242AD182B021FD5012400220C4001230025904624E61F20B9
:403900002C004042821AD440202E1CD04022961BB5402B43581E83410720234318400025002809D00F2200251A401C00042AD8D1230068076D022D0B0124DB08034398462C
:403940000C40002300E60025E3E780220124120315432D0398462D0B0C40044BF4E5C046FF030000FFFFFFFEFE070000FF070000F0B557464E464546E0B40E001100F20FF2
:403980009246C500420F180337037400400A4E0F7F0A3043CF4E17435A00640D520DDB0FC900B24200D1E5E001267340A61AB446534500D1AFE0002E00DC0DE1002A3AD116
:4039C00003000B4300D0E4E06B0709D00F232B40042B05D02B1DAB42AD416D427F191D003B0200D488E0BB4B01349C4200D110E13A00B94B51461A4001235007ED08520228
:403A000064050543120B640D0B400021280012030D0D120B64052D0515436208AF4CDB072C401443640064081C4321001CBC90469946A246F0BDA74B9C42C5D080231B04D1
:403A400018436346382B00DDFDE01F2B00DD30E1624620239B1A02009A40664690460A009940F24046464B1E99413243114363460200DA40691A8D429B410D00BA1A5B42D1
:403A8000D71A3B0235D57A02530A98464346002B00D1C4E0404600F001FC0300083B1F2B00DDC5E020222900D21A4746D1409F400A009D403A439C4200DDC0E01C1B631C20
:403AC0001F2B00DDE4E0202114002800C91AD8408C408D400443DA40681E854117002543002471E7424663461A4300D14CE2674645466B0700D069E7012351467807ED089C
:403B0000FA080B40054373498C4238D012036405120B640D79E7002E00DC9AE0002A47D06C4A944200D14FE78022120410436246382A00DC08E10143481E81410022C9B2B7
:403B40004919D219A942BF410D007F42BF183A0200D442E15F4A0134944200D14EE101205D4A69083A4028400843D507054357089A4629E706000E4300D017E714E729005F
:403B8000114300D1F9E1802109030A431203120B3BE701235B429846C4446346002B72D1691A8D429B413F1A5B42FF1A0D0068E702000A4300D107E7012252429046C444BE
:403BC0006246002A00D0E6E06918A942B6413F187642F7190D00BAE7002E00D080E0621C5205520D012A00DCF9E06A1A91464D45B6413A1A7642921B9046120200D499E0E7
:403C00004D1BA9428941C71B49427A1A90469A463CE752460123002513400022F5E6280000F03CFB20300300083B1F2B00DC39E72A002838824000259C4200DC3EE7264F6C
:403C4000E41A1740C0E60143481E81410022C9B210E7002E00D0F1E0621C94465205520D012A00DCA0E01B4A944500D1C5E06918A94292413F185242D2194908D5070D439F
:403C800057086446A0E6134B9C4200D0D9E69BE611001F3CE1400C00202B00D180E04021CB1A9A4015436A1E95410027254300241FE763460200203BDA406346202B71D030
:403CC000402366469B1B98400143481E814111430022CFE6FF070000FFFF7FFFFFFF0F80002C48D0CA4CA24200D1A2E07442A1468024240427434C46382C00DDDBE01F2C44
:403D000000DD44E14E462024A41B3E00A640A246B0464C462E00E640B4464646644626435446A5406C1EA54134002C434D46EF400D1B28E04A4643464D461A4300D0A5E681
:403D4000002300240025DEE61F2A5ADC66462022921B060096409146B04662460E00D640424616434A4691404A1E9141020060463143C240E4E63C002C435AD0F443A1462D
:403D8000002C52D14D1BA9428941C71B49427F1A14009A4675E69E4A944200D0C7E613E600227FE700208FE7002C00D0C8E03B002B4300D10FE103000B4300D104E6691855
:403DC000A9429B413F185B42DF193B0200D41AE1904B0D001F406446F6E59A4689E63A002A43002C5CD1002A75D102000A4300D1CAE007000D009A46E6E5644600220025FF
:403E000081E662460600203AD6406246B046202A00D1B7E040226646921B904001434246481E8141114300228AE6794CA24200D061E707000D0014009A46C5E5002C41D197
:403E40003C002C4378D0F443A146002C20D0704CA24271D04C46382C00DDB2E01F2C00DDBCE02026341BA2463C005646B4404E46A0462C00F440A446444666463443A44667
:403E80005446A54064466E1EB54125434C46E7406D188D4289413F184942CF19140056E6002A2FD102000A4300D184E007000D009A46574C88E53D436F1EBD41ECB200277C
:403EC0000D1B60E7524CA24236D0744280263604A1463743BEE702000A4300D174E56A1A90464545B6413A1A7642921B9446120200D4F7E54D1BA9428941C71B49427F1A61
:403F00009A4661E502000A433AD0ED087C072C438025FA082D032A4208D0C7082F4205D145072C003A009A46C9080C43670FD200E5001743364C47E507000D00140043E5B3
:403F40003A002A4343D002000A4319D0ED087C072C438025FA082D032A4207D0C6082E4204D147073C003200C9080C43D700620FE50017439A46264C26E50022002544E50B
:403F8000234C21E5002049E700230025BBE54C463E00203CE6404C46B446202C31D040244E46A61BB7403D436C1EA54164462C4300270D1BE7E6802200231203144C0025F5
:403FC000A1E53D436F1EBD410027EDB260E707000D000F4CF8E407000D00F5E44E463C00203EF440A0464C46202C0ED040244E46A41BA7403D436F1EBD4144460027254325
:4040000046E70027CFE70D0073E50027F2E7C046FF070000FFFF7FFF70B50E4E0C031D0349005B00240B490D2D0B5B0DB14204D0084900208B4208D070BD04430120002C72
:40404000FAD1044900208B42F6D115432800451EA841F1E7FF07000070B5002830D0C317C4185C40C50F200000F018F9174B184A1B1AD21A1F2A18DD164AD21A94400022D1
:4040800024035B05240B5B0D0021100024030A0D1205240B1443104A1B0514401C436400ED0764082C43210070BD210091400A000B21081AC4405B052403240B5B0DE3E7F2
:4040C0000025002300240022DEE7C0461E0400003304000013040000FFFF0F804200120E511C4302C9B270B55D0AC40F012915DDE02189008C466D071B0B6244002128007B
:404100000D0D2D052B431C4D52052B40520813435B00E4075B082343190070BD002A15D1002D1FD0280000F0B9F80A281DDC0B232A001B1ADA4013000200153295400F4A44
:404140001B03121A52051B0B520DD7E7002D06D080221B0B120313436D07094ACEE7084A0023CBE700220023C8E703000B3B9D402B000025E3E7C046FFFF0F80890300002F
:40418000FF0700004B0070B55E0D0C03751C640A420F6D052243C90FC4006D0D012D2ADD3B4BF318FE2B1ADC002B42DD8001451EA841D2001043620F0243500704D00F20A1
:4041C0001040042800D004328020C004104021D00133FF2B03D09201520ADBB201E0FF2300225202520ADB0513435B00C9075B080B43180070BD002E07D01443EFD0802004
:40420000D20080040243FF23D7E722430023002A03D00522D208FF2B03D05202520ADBB2DFE7002A32D08020C00302435202520AD7E71800173014DB8020000402431E20C6
:40424000C01A1F280FDC2500124BF3189D406E1EB5419A402B0013432200C2401A430023ABE70023D5E702256D42EB1A1500DD40202809D0084BF3189A401443621E9441C4
:40428000220000232A4398E70022F6E70022A8E780FCFFFF82FCFFFFA2FCFFFF1C2101231B04984201D3000C10391B0A984201D3000A08391B09984201D30009043902A22E
:4042C000105C40187047C04604030202010101010000000000000000014B18687047C046480100200E4B70B500251E000D4CE41AA410A54204D0AB00F35898470135F8E7CB
:4043000000F0C0FD084B00251E00084CE41AA410A54204D0AB00F35898470135F8E770BD904E0000904E0000904E0000984E0000002310B59A4203D0CC5CC4540133F9E7F7
:4043400010BD03008218934202D019700133FAE77047000030B59BB00091049108496D4602910591012182244942E981A4006946AC8100F075F80023009A13701BB030BDC2
:40438000FFFFFF7F10B513000A00010002480068FFF7E0FF10BDC04648010020F0B58E6885B007000C00039201939E4243D890238A89DB001A423ED003250969236801980B
:4043C0005B1A029363695D43EB0F5D19029B6D1001331B18AB4200D91D00530510D52900380000F037FB061E14D0029A2169FFF79FFFA289194B134080221343A38112E001
:404400002A00380000F086FB061E0CD12169380000F0D4FA0C23402201203B60A38940421343A38117E0029B2661F61826606561019EED1AA560019BB34200D21E003200E0
:404440000399206800F0A5FA0020A3689B1BA36023689E19266005B0F0BDC0467FFBFFFFF0B59FB0029005938B890F0016001B0610D50B69002B0DD1402100F0EBFA386055
:404480003861002804D10C23029A01381360D8E040237B61002306AD6B6120336B761033AB7634002378002B03D1A31B049312D003E0252BF9D00134F4E7A31B3200390084
:4044C0000298FFF76BFF431C00D1B4E06A69049B944663446B612378002B00D1ABE00122002352426A6002A95432521801342B60EB60AB601370AB65534E217805223000A4
:4045000000F03CFA002807D00123801B83402A68013413432B60EFE72B68DA0604D55322202102A8121811701A0704D553222B2102A81218117022782A2A03D0099B00206A
:404540000A210EE0059A111D12680591002A01DB099204E05242EA60022213432B6001340BE02278303A092A04D84B4301349B180120F6E7002800D0099323782E2B1ED1BF
:4045800063782A2B0AD1059B02341A1D1B680592002B01DA01235B42079310E000230A201A0001346B6021783039092904D84243013452180123F6E7002B00D00792234ED7
:4045C00021780322300000F0D9F9002806D04023801B83402A68013413432B60217806221B48661C297600F0C9F9002812D0194B002B06D10722059B073393430833059391
:4046000014E005AB00933A00134B2900029800E000BF07E005AB00933A000F4B2900029800F08AF80390039B013304D06B69039A9B186B6135E7BB890B985B0601D50120D2
:4046400040421FB0F0BDC0464E4E0000544E0000584E0000000000009D430000F7B5170001938A680B6900900C00934200DA130022003B6043321278002A01D001333B60D1
:4046800023689B0602D53B6802333B60062523681D401ED0230043331B785A1E9341226892061CD53020E1184331087021005A1C45310978A2184332023311700FE022003F
:4046C0000123193201990098089EB047431C0ED00135E3683A689B1A9D42F0DBDAE72200019943320098089DA847431C02D10120404220E006232068E1683A6803400025C6
:40470000042B03D18D1AEB43DB171D40A3682269934201DD9B1AED180027BD420AD0220001231A3201990098089EB047431CDED00137F2E70020FEBDF0B58BB006920A0073
:4047400043320793059004920A7E0C00109B6E2A00D1ABE011D8632A22D009D8002A00D1B5E0582A00D0C5E045310A70814A4FE0642A1DD0692A1BD0BCE0732A00D1AAE085
:4047800009D86F2A29D0702A00D0B3E0202209680A43226037E0752A1FD0782A33D0A9E00E001A684236111D196013683370A4E021681A68080606D4490604D5111D196021
:4047C0000023D55E02E0111D19601568002D3BDA2D23049A6D42137036E021681A68080606D4490604D51568111D1960ADB202E0111D196015685F4B227E039308276F2A99
:404800001DD00A271BE022007821453211705A4A19680392081D226818600D68100602D4500600D5ADB2D30702D520231A4322601027002D03D1202322689A432260230086
:40484000002243331A7002E00A274A4B03936368A360002B09DB0422216891432160002D05D1049E002B11D07BE0002D79D0049E28003900FDF776F9039B013E5B5C280053
:4048800033703900FDF7E8F8051EF1D1082F09D12368DB0706D563682269934202DC3023013E3370049B9B1B23612BE009681A68080607D4490605D5111D19601368A28A95
:4048C0001A8004E0111D1960136862691A600023049E236116E01A68111D1960166800216268300000F04AF8002801D0801B6060636803E026004236327001232361002393
:40490000049A1370079B09AA00932100069B0598FFF7A4FE431C02D10120404227E02369320006990598079DA847431CF4D0236800259B070FD4099BE068984217DA1800E7
:4049400015E022000123193206990598079EB047431CE1D00135E368099A9B1A9D42F0DBE9E72600039B42361B7833708EE70BB0F0BDC0465F4E0000704E0000C9B28218A1
:40498000904204D003788B4202D00130F8E70020704710B5884202D98B18984201D3002305E09B1A013A08D3995C8154FAE7934203D0CC5CC4540133F9E710BD70B5050024
:4049C000002944D00C1F2368002B00DAE418280000F0D8F81E4A13681100002B02D16360146031E0A3420DD92268A018834203D118685B688218226063600C6024E0A24285
:404A000003D813005A68002AF9D11E689819A0420BD12168711858181960824214D110685268411819605A600EE0A04202D90C232B6009E021686018824203D11068526862
:404A40004118216062605C60280000F09CF870BDDC010020032370B5CD1C9D43083506000C2D01D20C2501E0002D01DBA94202D90C23336048E0300000F084F8234B1C684C
:404A80001A002100002913D00B685B1B0DD40B2B02D90B60CC181EE08C4202D1636813601AE04B6863600C0016E00C004968E9E7174C2368002B03D1300000F051F82060D3
:404AC0002900300000F04CF8431C18D00323C41C9C43A0420DD12560300000F054F8200007220B30231D9043C31A0ED05A42E2500BE0211A300000F033F8431CEBD10C2371
:404B00003000336000F03FF8002070BDDC010020D8010020F8B506000C001500002904D11100FFF797FF040018E0002A03D1FFF745FF2C0012E000F027F885420ED92900A1
:404B40003000FFF787FF071E07D021002A00FFF7EFFB21003000FFF731FF3C002000F8BD002370B5064C050008002360FCF7C8F8431C03D12368002B00D02B6070BDC04686
:404B800034020020704770470B1F1A68101F002A04DA891804390B68D018043870470000000000006672657175656E6379202530642E253032640D0A00000000726D735F96
:404BC000766F6C745031202530642E253032640D0A000000726D735F766F6C745032202530642E253032640D0A000000726D735F766F6C745033202530642E253032640D6D
:404C00000A0D0A00726D735F766F6C744731202530642E253032640D0A000000726D735F766F6C744732202530642E253032640D0A000000726D735F766F6C74473320252F
:404C400030642E253032640D0A0D0A00726D735F6375725041202530642E253032640D0A00000000706F7765725F666163746F72202530642E253032640D0A0D0A00000099
:404C800000300F40000400400F40000436013E4058045F011F40874067108710D880E21004320F4002330F4004410F40030405060708090A0B0C0E0F10111213141516174E
:404CC00018191B1C1D1E1F2021222325262728292A2B2E2F3031323334350000000000000000000000000000000000000000000000000000000000000000000000030102C2
:404D0000077273067371727400000000FE21000022210000E0210000B8210000E0210000AC210000E0210000B82100002221000022210000AC210000B82100006422000021
:404D40006422000064220000E62100002221000022210000CC210000B6210000CC210000AC210000CC210000B62100002221000022210000AC210000B621000064220000A8
:404D8000642200006422000070220000FC2300005A2300005A23000058230000EE230000EE230000E423000058230000EE230000E4230000EE23000058230000F423000062
:404DC000F4230000F42300007E240000242E0000F22C0000F82D0000E82C0000F82D0000022E0000F82D0000E82C0000F22C0000F22C0000022E0000E82C0000DE2C000022
:404E0000DE2C0000DE2C0000543000006C3600002C3500002C3500002A3500004436000044360000363600002A3500004436000036360000443600002A3500004C36000017
:404E40004C3600004C3600004C3800004300232D302B2000686C4C006566674546470030313233343536373839414243444546003031323334353637383961626364656674
:404E800000000000F8B5C046F8BC08BC9E46704739020000790D0000F8B5C046F8BC08BC9E46704711020000B84E0000C000002090000000E80000000000000038020020DA
:404EC000010000000000E02EC05D00001800000000366E01F000000004040400010000000000000000000000000000000000000000000000000000000000000000000000CC
:404F00004C4E0000000000000000000000000000000000000000000000000000000000000000000000000000000000000000000000000000000000000000000000000000D7
:404F4000E800002000000000000000000000000000000000000000000000000000000000000000000000000000000000000000000000000000000000000000000000000029
:404F800000000000000000000000000000000000000000000000000000000000000000000000000000000000000000000000000000000000000000000000000000000000F1
:404FC00000000000000000000000000000000000000000000000000000000000000000000000000000000000000000000000000000000000000000000000000000000000B1
:405000000000000000000000000000000000000000000000000000000000000000000000000000000000000000000000000000000000000000000000000000000000000070
:405040000000000000000000000000000000000000000000000000000000000000000000000000000000000000000000000000000000000000000000000000000000000030
:020000040001F9
:0200000490303A
:02000000C03D01
:0200000490402A
:4000000000000000000000000000000000000000000000000000000000000000000000000000000000000000000000000000000000000000000000000000000000000000C0
:400040000000000000000000000000000000000000000000000000000000000000000000000000000000000000000000000000000000000000000000000000000000000080
:0200000490501A
:0C0000000002112D11A100011146D1DEFB
:0200000490600A
:0100000001FE
:00000001FF