:400000000010002011000000FD070000FD07000010B500F0FBFBC04670B5214C23688022D20213432360182000F0A4FC22681D4B134023601C4A1D4B1A6011221C4B1A606E
:4000400010321C4B1A60013A1B4B1A60103A1B4B1A6020321A4B1A6001321A4B1A6082221206194B1A6000252560184B184A1360184A1360184A1360184A194B1A60194A0C
:40008000194B1A60194A1A4B1A601A49092000F017FC092000F0FEFB174B1D6070BDC04600010B40FFFFFBFF0600008004010B40080202401C0202402002024024020240DB
:4000C000280202403002024008010B40010000800000024040000240800002400E0000800400024017000080440002403801008084000240850B00000C020B4070B572B61F
:400100000122474B1A7000240FE046486200131959000B00411889881A5AC31858880004104300F061FB0134E4B2022CEDD9002411E03C4EA2001319590071188D8AC88A3A
:40014000000428430A8B498B09041143802200F051FB0134E4B2002CEBD03249203132486C3000F01FFB80225200304B1A8001212F4B1970C02292052E4B1A602E4A2F4B3E
:400180001A60EE222E4B1A6099231B042D4A13602D482E4A1060802080052D4A1060802000062C4A10602C4A13602C4A1360A622D2032B4B1A602B4B196002222A4B1A60A7
:4001C0002A4803783A32934314221343DBB20370274A107816230343DBB21370FF22254B1A60254A254B1A608F22254B1A60254A254B1A60254A264B1A601322254B1A60EB
:40020000254A264B1A60264B19600322254B1A602132254B1A60FFF7FFFE00F0DDFA70BD1C700F402C2400002C26000000600F4002600F400400014037EE08000C000140AB
:400240001000014000500F400400990010500F4014500F4018500F4020500F4030500F4038500F402000004000800F4001700F4000700F4000000440B66DDB000800044037
:4002800000010440B60DC40008010440B66D1B000802044000030440B06D00000803044018030440000404400804044010B5064C2378002B07D1054B002B02D0044800E0C1
:4002C00000BF0123237010BD4801002000000000C4230000084B10B5002B03D00749084800E000BF07480368002B00D110BD064B002BFBD09847F9E7000000004C01002020
:40030000C4230000C00000200000000010B501F0CDFA074B1870074A13780749C854013313700D2802D10122044B1A7010BDC046AB010020B1010020B401002064010020D1
:4003400010B5040001208840C043C0B201F0AEF8024B185D01F0B6F810BDC046C823000010B52348438801339BB243808288013292B28280C188013189B2C180642904D185
:400380000100012008720020C8801A498A4205D1174A517A0131517200219180012B04D1154B18780021FFF7CBFF114B5B88022B04D1124B18780121FFF7C2FF0C4B5B88CE
:4003C000032B04D10E4B18780221FFF7B9FF084B5B88042B07D10B4B18780321FFF7B0FF0022034B5A80012001F0D0F810BDC0466401002088130000AA010020B0010020A1
:40040000A0010020A901002070B505000A2101F081FDC0B20001C4B20A21280001F000FE0C43E0B270BDC04670B501F09FF84D4801F0DAF84C4801F099FA00F0E3FF01201E
:4004400000F090FF01F06EF900F004FC00F07AF901F078F901F01AFA62B644494B780F2214001C40424804701B09424803708B781A4041490A701B09032213403F4A1370BA
:400480003F4B1B7A012B06D100F08CF800F022F900223B4B1A72012001F05EF9002808D0002001F06DF90100002001F07FF9354B1860344B18680A2101F0B6FD324B186042
:4004C000C0B2FFF7A1FF314B18602D4B5B7A012B0CD10B21264A11700139264A11700F22024025490A700011244A1070022B15D11E494B780F2214001C401D4804701B092D
:400500001C4803708B781A401B490A701B09032213401A4A13700022194B5A72184B1B78012BADD11A4D00242C701A4801F068FEC0B2194B1870124B1C702C70124B1B6891
:40054000984207DA154801F0D1F901F08DFA01F09BFA95E7124801F0C9F901F003FB01F013FA8DE7610300000D030000EC010020AA010020B0010020A0010020A901002018
:4005800064010020E8010020A4010020AC010020B1010020B4010020A8010020D4230000DC23000010B5FA2292000021682000F083FCC0B20028F6D1FA24A400210000F0F6
:4005C00009FD22000121682000F0C8FD002408E00A496118FA229200002000F01FFD0134E4B2052CF4D9FA24A40022000449012000F014FD200000F0C1FC10BDEC010020FF
:40060000F201002010B5144BDB78072B1FD89B00124AD3589F46124800F092FE1AE0114800F08EFE16E0104800F08AFE12E00F4800F086FE0EE00E4800F082FE0AE00D48E1
:4006400000F07EFE06E00C4800F07AFE02E0044800F076FE10BDC046EC010020E4230000042400000824000010240000142400001C240000202400002424000010B504009E
:4006800003090320184000F0EBFE0F20204000F0E7FE10BD10B50400000900F0E1FE0F20204000F0DDFE10BD10B5040003090720184000F0D5FE0F20204000F0D1FE10BDAF
:4006C00010B50400000900F0CBFE0F20204000F0C7FE10BD10B5012000F044FE0021002000F0A0FE154CA078FFF7C8FF3A2000F035FE6078FFF7CEFF3A2000F02FFE20781A
:40070000FFF7D2FF0021012000F08CFE0C4800F017FEA079FFF7D4FF2F2000F01FFE6079FFF7CEFF2F2000F019FE2079FFF7C8FF202000F013FEFFF765FF10BDEC010020E2
:400740002824000010B5164B01221A7007325A70043A9A70DA7014321A71073A5A710F329A71FA2292000021682000F0A5FBC0B20028F6D1FA21890000F02CFC002407E08D
:40078000074B185DFA21890000F024FC0134E4B2062CF5D9FA20800000F0F0FB10BDC046EC010020F0B50025002711E0BB00C658F3B2FF22964308E06A008A181478A41907
:4007C000527822700135013BDBB2002BF4D10137082FEBD9F0BDC04680221203014B1A607047C04600031A4010B50A00002101F042FD10BD10B501F035FD10BD10B501F0D9
:4008000005FD03680C2B00D1FEE7FEE770B50F4E0F4D13E029686B68AC68002202E001C901C30432A242FAD1E868002202E0002102C304328242FAD11035013E002EE9D14E
:4008400001F0EAFCFFF7F0FDFEE7C04601000000D428000010B500230AE0032B03D89A000949505800E009489900094A885001332F2BF2D9FFF742FC8022D20511680123CF
:400880000B43136010BDC04600000000FD070000000000201F2318401E3B8340014A13607047C04600E100E01F2318401E3B8340014A13607047C04680E100E001BE7047A6
:4008C00070B504000D001F2802D90020FFF7F6FF1034A40080239B059C4664442068256070BDC04670B504000E00032902D90020FFF7E4FF1F2C02D90020FFF7DFFF032527
:400900002540ED00063501F049F9A408A400074B9C46644421680323AB4099430B003100A9401943216001F03DF970BD00E400E010B5040006E0084B586801F025F9074B18
:400940009C46644480231B029C42F4D8024B9868604301F019F910BDC40000200080FFFF10B5034B1B7B584301F00EF910BDC046C4000020F0B557464E46C0B483B00400ED
:4009800001F00CF90190E71E2D2F74D83F4B1B78DBB29C4208D83E4B1B78DBB29A463D4B1B78DBB2994631E03B4B1B78DBB29C4208D83A4B1B78DBB29A46394B1B78DBB2ED
:4009C000994623E0374B1B78DBB29C4208D8364B1B78DBB29A46354B1B78DBB2994615E0334B1B78DBB29C4208D8324B1B78DBB29A46314B1B78DBB2994607E02F4B1B7878
:400A0000DBB29A462E4B1B78DBB299462D4BDE5D2F2E09D92A2C07D919222B4B1A60052001F0B2F8192503E0274B1D683F231D40B54206D9234BDA5D234B1A60052001F06E
:400A4000A3F81F4B9C4664442378DBB21F4A13601F4B52461A601F4B4A461A600520FFF77FFFB5420AD2174BDA5D174B1A60052001F08AF802E00020FFF720FF019801F0D9
:400A800091F803B00CBC91469A46F0BDC0F1FF0FC1F1FF0FC2F1FF0FC3F1FF0FC4F1FF0FC5F1FF0FC6F1FF0FC7F1FF0FC8F1FF0FC9F1FF0FCAF1FF0FCBF1FF0FCCF1FF0FCD
:400AC000CDF1FF0F3C2700002CFF0B4028FF0B401CFF0B4020FF0B40034B1868C0231B02184000D00120704700010B4010B501F055F8044A1368C02109020B43136001F08B
:400B000051F810BD00010B4010B501F047F808490A68084B1A408024E40122430A600A6813408022120213430B6001F03BF810BD00010B40FF3FFFFF70B5050001F02EF8A0
:400B40000400FFF7C9FF002803D0FFF7DDFF012100E0002108482840084A1568084B2B40184310601368012901D1FFF7BFFF200001F018F870BDC0460404040010020B40CB
:400B8000FBFBFBFF10B5244B1B685B0715D5234B1B685B070ED5224BD969042001401F4C22688A432260DA698243DA611B69002B00D098470420FFF7BFFF174B1B685B05F6
:400BC00018D5164B1B685B0510D5154BD9698022D2001140114802688A430260D969114A0A40DA615B69002B00D098478020C000FFF7A2FF084B1B685B030CD5074B1B68E5
:400C00005B0304D5064B9B69002B00D098478020C002FFF791FF10BD10020B40D800002070010020FFFBFFFF10B50A20FFF732FE10BDC04610B500F01DF810BD10B5044A29
:400C40001368802109060B431360FFF7EDFF10BD0000064010B5064B1B78002B04D1FFF7E9FF0122024B1A70FFF7E8FF10BDC0469001002010B51B4A11680C230B4313601E
:400C80000024194B1C60194A194B1A60194B1A4A13601A4A14601A4A14601A4A13601A4B1C600A20FFF700FE03210A20FFF71AFE16490A20FFF704FE154B1C60154B1C6099
:400CC000154B1C60154B1C60154B1C60154B1C601022154B1A70154B1C80154B1C60154B1C6010BD7000064000000640770800806000064007010080000306400403064028
:400D0000100306400002064004020640AD1B0000C80E0640880E0640480F0640080F0640C80F0640880F0640F30100200002002010020020F801002010B5144A13685B0098
:400D40005B081360002312490B6012490B601248046812492140016011490B6011490B601149124B19601249124B19601249134B19601349134B19601021134B1970136828
:400D8000802109060B43136010BDC04600000640680006406C00064060000640FF5CFFFF880F0640C80F0640F3070000800F0640ED0F0000C00F0640FF0F0000400F0640CD
:400DC00017030000000F0640F301002010B504000368002B09D00120FFF7C2FD2368013B2360002B03D0002003E0002001E08020000610BD10B5002839DBC023034208D0A2
:400E00000022284B1A601032274B1A70002310243DE0C3070FD5244B1B781B072BD5234B1B685B0001D5002300E0012310211E4A117001242BE0C30520D4830722D4C30687
:400E400005D51022184B1A70002300241FE0164B1B781B0719D5144B1B78DB0701D5252200E02422104B1A70002300240FE00123802424060BE00123012408E00123802427
:400E8000640004E00023022401E000230024012B02D1FFF751FF02E0054A064B1A60200010BDC04668000640F30100206000064017030000000F064070B582B004000D0006
:400EC0001600244B1B78102B40D10A20FFF7ECFC214B1B68DB0734D4FA239B005E43019600221E4B1A601E4A1E4B1A601E4A1F4B1A606400FF231C40002D03D12422154B98
:400F00001A7004E02522134B1A7001231C43184B1C600222174B1A60124B1C680823FF3320001840144B1B68C02423401843040001A8FFF74BFF2043EED0FFF75BFF040016
:400F400000E008240A20FFF7A5FC00E00424200002B070BDF301002064000640080F064017030000000F0640ED0F0000C00F06404002064068000640400F064010B582B040
:400F8000104B1B789B061AD5FA239B00584301900D4B1B689B0601D5182200E010220B4B1A600B4B18681223FF331840040001A8FFF70CFF2043F4D0FFF71CFF00E00420E2
:400FC00002B010BDF30100206400064068000640000F064010B582B00D4B1B789B0613D5FA239B00594301910A4B18600A4B18680823FF331840040001A8FFF7E7FE20431E
:40100000F4D0FFF7F7FE00E0042002B010BDC046F301002040020640000F0640F0B583B004000D00164B1B789B0626D5FA239B005A430192134B18680223FF331840070092
:40104000114B1B6804261E4001A8FFF7BFFE384333000343EED0002E05D00C4B1B682B700B4A094B1A60FFF7C5FE002806D1002C04D10422074B1A6000E0042003B0F0BD51
:40108000F3010020000F0640C00F064040030640ED0F00006800064070B52B4B1B6820251D402A4C03E00120FFF75AFC013C00F089F8002801D1002CF5D1002C43D0002000
:4010C00000F088F8224A13680F218B431360214A13685B005B081360002D18D0002000F079F80A20FFF73CFC012000F073F80A20FFF736FC154C03E00120FFF731FC013C90
:4011000000F074F8002803D1002CF5D100E00F4C002C08D0002000F05DF80A20FFF720FC01220D4B1A600B4A1368802109060B43136007490B680F229343013A13430B6089
:40114000012000F047F870BD64000640204E000010000140000006406800064010B582B0154B1B789B0623D5FA239B005A4301924000FF240440002903D124220E4B1A705D
:4011800004E025220C4B1A7001231C43FFF784FF0A4B1C600A4B18680823FF331840040001A8FFF713FE2043F4D0FFF723FE00E0042002B010BDC046F301002040020640B5
:4011C000000F0640024B1868400801231840704704040440044A1368DBB201218B430840184310607047C04600040440024B1B68012018407047C0460404044010B50B4C3A
:40120000226860239A4322602268513B9A432260226810230343D8B2104320600120FFF79FFB236810229343236010BD0002044070B505000E4C22682023134323602368DE
:401240004022934323600020FFF78AFB23680F2293432360226810232B43D8B2104320600120FFF77DFB236810229343236070BD00020440F8B5274A13687F218B431360E9
:4012800025490B681B0B1B03244803430B60136820218B431360116840230B431360CA277F000020FFF75CFB1A4C23681026334323600120FFF754FB194B1D682368B34385
:4012C00023600020FFF74CFB08231D402368334323600120FFF744FB2368B3432360002D02D10A20FFF73CFB013F002D01D0002FD7D1084B1A6840218A431A601A683F31CD
:401300008A431A60044A13681B0B1B0305490B431360F8BD00020440080204404902000004020440B60D000010B50400FFF7A2FF2009FFF77DFF0F202040FFF779FF10BDE4
:4013400070B505000078012404E0FFF7EDFF285D0134E4B20028F8D170BDC04610B5FFF7E3FF10BD10B50400FFF784FF2009FFF745FF0F202040FFF741FF10BD10B52820BE
:40138000FFF7D6FA0320FFF739FF0520FFF7D0FA0320FFF733FF0F20FFF7CAFA0320FFF72DFF0120FFF7C4FA0220FFF727FF0520FFF7BEFA0620FFF7D5FF0E20FFF7D2FFED
:4013C0002C20FFF7CFFF0820FFF7CCFF0120FFF7C9FF0C20FFF7C6FF0320FFF7C3FF0520FFF7A6FA014800F07FFD10BD6C27000010B50C20FFF7B6FF0122014B1A7010BD21
:401400009801002010B5064B5B78002B04D1FFF7B5FF0122024B5A70FFF7EAFF10BDC0469801002010B501280BD0002804D002280CD003280FD012E08039C8B2FFF792FF3A
:401440000DE04039C8B2FFF78DFF08E06C39C8B2FFF788FF03E02C39C8B2FFF783FF10BD30B585B00400002201AB9A7209250EE00A21200000F0D4FDC9B2303101AB595529
:401480000A21200000F046FD0400013DEDB2092CEED80A21200000F0C3FDC9B2303101A841554019FFF74CFF05B030BD044A1368DBB20F218B430840184310607047C0465C
:4014C00000010440014B1A6818607047000004400004000C014B18607047C046480105400004000C014B18607047C0465401054070B504000D0000F051FBAC40024B1C60F5
:4015000000F050FB70BDC0460800054010B500F045FB064A116802230B43136000F042FB18210220FFF7E4FF10BDC04600000540014B18607047C0467801054010B580222D
:401540009204074B1A600C22064B1A600120FFF7EFFF0548FFF7C4FF0020FFF7B9FF10BD4001054064010540E02E000010B5064B1B78002B04D1FFF7E1FF0122024B1A70B3
:40158000FFF7C4FF10BDC0469A010020014B18607047C046700105408423014AD05070470000002010B5040000F0F8FA044A1168044B0B40A4031C43146000F0F3FA10BD94
:4015C00010E400E0FF3FFFFF80229202014B1A607047C04600E100E080229202014B1A607047C04680E100E010B50400FFF7F4FF2000FFF7D1FF0320FFF7D4FFFFF7E4FF0A
:4016000010BDC04610B503210E20FFF76BF924490E20FFF755F90122224B1A60224B1B68002B01DA214900E02149224A13680B431360214A214B1A60214A224B1A60002365
:40164000214A1360214A22490A6022490A6022490A688020400202430A60204A1360204A136001331F4A136002211F4A11601F4908681F4A024013430B6000230CE09A0055
:401680001C495018002101605C001B482152802040011A4950500133002BF0D010BDC0460918000020001A4080031A40700210537002005300001A408C00008004001A40FD
:4016C0000000FF0718001A401C001A400200020010001A4014001A4000031A4028021A4038021A4018021A40000F1A4030001A40FFFFFFDF80001A401C0200201802002016
:4017000010B5074B1B68002B08DB054A1368802109060B4313600A20FFF722F910BDC04600001A4010B5064B1B78002B04D1FFF769FF0122024B1A70FFF7E2FF10BDC046B3
:401740009B010020034A1368802149020B4313607047C04604001A40020083070CD0074B1B680120184001D19307F8D4002804D00122024B1A6000E00020704710021A4026
:4017800010B5041E02D00020FFF798F8002C07D1A400054B9C46644420680004000C00E0002000B210BDC04680011A4070B504000D00002802D00020FFF780F863000F4AD6
:4017C000995A09B2691A09B20D484843002906DDA3000C4A9A58D30F9A18531006E0A300084A9A58D30F9A18521053421818A400044BE15800F018FC00B270BD1C0200205A
:401800001027000018020020014B1A681A60704710021A407222074B1A70523A064B1A701A3A064B1A704132054B1A700022054B1A70704781000F4080000F4023000F40B5
:4018400033000F4082000F4010B500F0A7F904000B4A117820230B43DBB2137009490A7810231A43D2B20A70074A11780B43DBB2137000F04FF8200000F094F910BDC046FC
:4018800091000F4090000F4092000F4010B5064B1B78002B04D1FFF7BDFF0122024B1A70FFF7D2FF10BDC0469C010020074B1B78DBB29A0606D5064A1078C0B21E221A4209
:4018C00002D102E0002000E00020704760000F4041000F40034B1B785B07FBD4024B18707047C04662000F4042000F4070B50500074B1B78002B05D108E0FFF7EBFF01342A
:40190000A4B200E00024285D0028F6D170BDC0469C010020034A1368802109060B4313607047C04684000240014B18647047C0460000002010B5040000F030F9044A1368DD
:40194000C0218B43A4011C43146000F02BF910BD00E400E00122014B1A60704700E100E00122014B1A60704780E100E010B50400FFF7F6FF2000FFF7D7FF0320FFF7DAFFC7
:40198000FFF7E8FF10BDC04610B500F007F9044A136801218B43136000F004F910BDC046000005400004000C014B18607047C046080105400004000C014B18607047C04621
:4019C000140105400004000C014B18607047C0460C01054070B504000D0000F0DFF8AC40024B1C6000F0DEF870BDC0460800054010B500F0D3F8064A116801230B43136084
:401A000000F0D0F818210120FFF7E4FF10BDC04600000540014B18607047C0463801054010B50E4C8023DB042360236823600020FFF7B8FF236823600C22094B1A6001207A
:401A4000FFF7E8FF3122074B1A609620C000FFF7B1FF96208000FFF7B5FF10BD00010540240105402801054010B5064B1B78002B04D1FFF7D5FF0122024B1A70FFF7B8FF69
:401A800010BDC0469E01002010B500F087F8044A136804218B43136000F084F810BDC046000005400004000C014B18607047C046880105400004000C014B18607047C046BD
:401AC000940105400004000C014B18607047C0468C01054070B504000D0000F05FF8AC40024B1C6000F05EF870BDC0460800054010B500F053F8064A116804230B43136000
:401B000000F050F818210420FFF7E4FF10BDC04600000540014B18607047C046B801054010B50D4C8023DB042360236823600020FFF7B8FF236823600C22084B1A60012078
:401B4000FFF7E8FF3122064B1A60F020FFF7B2FF7820FFF7B7FF10BD80010540A4010540A801054010B5064B1B78002B04D1FFF7D7FF0122024B1A70FFF7BAFF10BDC04613
:401B80009F010020000000000230800804D0C0460138FDD1C046C046C0467047EFF3108072B6704780F310887047C04610B5AD4B1B68002B00D09847AB4B1B68DB0702D59C
:401BC0000022AA4B1A60AA4B1B789B0628D5A94B1B68DB0507D5A84A1188C0239B000B431380012300E00023A24A1268D20706D5A14A118890239B000B4313800123002BCE
:401C00000FD09B4A1278D20701D5012200E002229949088802430A800021954A117000E00023934A1278920600D414E1914A1268D20611D51022914B1A608D4B1B78DB070B
:401C400001D5012300E002238B4A11880B4313801022874B1A7004E1854A1278120720D5844A126892070AD50222844B1A60824A118888239B000B431380012311E07C4AA8
:401C80001278D20703D52521794A117009E02421774A11707A4A1268002A02D01439794A1160734A1278520700D4ABE0704A1278D20749D5744A1268120727D5734A126876
:401CC000734909680F240C40724909686418141B082C09D8002C16D16F4A11686F4B0B401360012308340EE008240CE0694A11686B48006841186B480068C0B2087011680B
:401D000001311160013C002CF0D119E05E4A1268520715D55F4A116861480068411861480068C0B208701168013111601168574A1268914203D204215B4A116000E001235A
:401D40005A495B4A11605DE04A4A1268920726D502224A4B1A6057490B680D321A40096880231B020B4000D001239B18524A1168CB1A13601268514B1A603F4A1188842303
:401D80009B000B4313804E4B1A68802149020A431A6019684B4A0A401A60012332E04A4A1268D20612D424E0434A1168344A1268914211D2404A1168444800684118097874
:401DC000C9B243480160116801311160394A12680F210A40082AE7D1374A1168284A1268914202D14021274A11603A493A4A116008E0354A1268520604D52F4B1A682F4B30
:401E00001A600123002B2CD0234A1168234B0B4013600023314A13601A4A1360304B1B789B070ED5124B1B78DB0701D5092300E00A23114A11880B43138060220C4B1A7037
:401E40000FE0284B1B689B0601D5182200E01022154B1A6005E0064B1B78DB0601D4FEF76BFF10BD940100208C0E0640880E0640F30100200C0F064000020020000F0640D8
:401E8000FC010020880F0640CC0F06400C020020080306401002002060000640FFFEFFFF040200204003064068000640ED0F0000C00F064008020640F4010020F8010020C9
:401EC00004020640FFFFFEFF8C0F06401402002040020640F3070000800F0640C80F0640080200206400064070B50500FFF7C2F94020FFF737FA002404E0285DFFF714FA49
:401F00000134E4B23F2CF8D9FFF7B4F98020FFF729FA70BD002243088B4274D303098B425FD3030A8B4244D3030B8B4228D3030C8B420DD3FF22090212BA030C8B4202D359
:401F40001212090265D0030B8B4219D300E0090AC30B8B4201D3CB03C01A5241830B8B4201D38B03C01A5241430B8B4201D34B03C01A5241030B8B4201D30B03C01A52419B
:401F8000C30A8B4201D3CB02C01A5241830A8B4201D38B02C01A5241430A8B4201D34B02C01A5241030A8B4201D30B02C01A5241CDD2C3098B4201D3CB01C01A52418309B0
:401FC0008B4201D38B01C01A524143098B4201D34B01C01A524103098B4201D30B01C01A5241C3088B4201D3CB00C01A524183088B4201D38B00C01A524143088B4201D3C7
:402000004B00C01A5241411A00D20146524110467047FFE701B5002000F0F0F802BDC0460029F7D076E7704703460B437FD4002243088B4274D303098B425FD3030A8B4227
:4020400044D3030B8B4228D3030C8B420DD3FF22090212BA030C8B4202D31212090265D0030B8B4219D300E0090AC30B8B4201D3CB03C01A5241830B8B4201D38B03C01AAF
:402080005241430B8B4201D34B03C01A5241030B8B4201D30B03C01A5241C30A8B4201D3CB02C01A5241830A8B4201D38B02C01A5241430A8B4201D34B02C01A5241030A34
:4020C0008B4201D30B02C01A5241CDD2C3098B4201D3CB01C01A524183098B4201D38B01C01A524143098B4201D34B01C01A524103098B4201D30B01C01A5241C3088B42F6
:4021000001D3CB00C01A524183088B4201D38B00C01A524143088B4201D34B00C01A5241411A00D201465241104670475DE0CA0F00D04942031000D34042534000229C4647
:4021400003098B422DD3030A8B4212D3FC22890112BA030A8B420CD3890192118B4208D3890192118B4204D389013AD0921100E08909C3098B4201D3CB01C01A5241830919
:402180008B4201D38B01C01A524143098B4201D34B01C01A524103098B4201D30B01C01A5241C3088B4201D3CB00C01A524183088B4201D38B00C01A5241D9D243088B422E
:4021C00001D34B00C01A5241411A00D20146634652415B10104601D34042002B00D54942704763465B1000D3404201B5002000F005F802BD0029F8D016E770477047C046FD
:4022000010B50A22002100F0D1F810BD014B18687047C0463C0100200E4B70B500251E000D4CE41AA410A54204D0AB00F35898470135F8E700F03CFB084B00251E00084C9E
:40224000E41AA410A54204D0AB00F35898470135F8E770BDBC280000BC280000BC280000C4280000002310B59A4203D0CC5CC4540133F9E710BD03008218934202D01970BD
:402280000133FAE770470000F0B51E00454B87B01B680192029308220B00059003911C7802995D1C09194878104001D02B00F6E72D2C04D19D1C5C780123009304E0009026
:4022C0002B2C01D15C789D1C002E02D0102E0AD162E0302C5ED120222B789343582B54D110266C780235009F31007B1E9F412E4BFF183800FFF794FE380004913100FFF701
:4023000009FE00230322070094461800029A121951780422114201D0303C07E06246114017D03722012900D02032A41AA64210DD5A1C0BD0B84207D802D1049B9C4203DCB7
:4023400070430123201801E001235B422C780135DCE75A1C0BD10098059A431E9841124BC01822231360019B002B0AD117E0009A002A00D04042019A002A10D0039A002B43
:4023800000D06A1E019B1A6009E03024002EAAD10826A8E70A26A6E7302C9CD0A3E707B0F0BDC04640010020FFFFFF7F10B513000A00010002480068FFF766FF10BDC046F3
:4023C0003C01002000000000FC60DAF266B6BEE0FEF6C69C31306B687A00000035306B687A0000004E060000160600001E060000260600002E060000360600003E06000074
:40240000460600004D4F4E00545545530000000057454E005448555300000000465249005341540053554E003230000000300F40800000310F40000300400F4000040000C1
:4024400080300F40BC2600008000000080388172820F02010E0211011A0224042E0131013204340136023E543F0154185604580459045B045F0100400240058406800704A6
:4024800009200C100E121188148016011728180519081C401D061E011F182101254027942C102E802F1833023480360337143E2A4410451247404E02552056405A015F8012
:4024C000600563406C086E046F017580762A772887408C48C0F9C2E2C4F5CA70CCF1CEE0D0F0D210D611D80D000A0214048005130640081309010A040B060CE011101420FF
:40250000164018E019021B051C401EA022082413260C2A152B082C032D132E143010310C32E03303340F351037203AA03E013F414023410646B047CE483849FF4AFF4BFFF5
:402540004EF04F44500C5401580459045A045B045F0166C06A406B0280DC8222841485808713880C8A718E038F0C900992D0952C9620974399719B069F08A010A240A410F0
:40258000A6ACA971AB0EB01FB1C0B30FB4E0B530B922BA20BB08BF10C002C604C9FFCA07CBFFCC40CD20CEF0CF05D008D804D904DA04DF01E040E1A8E240E320012002403A
:4025C0000322048005A00640072009080B400D400E040F20109014101502160519201B021D101E521F082004210122082340242025102680276029202D802F08309031107F
:4026000032083310372138083B403E043F204004450847104D2050845108520454095504560157205C205D085E405F018088831184218A488D408E90908092049420961030
:4026400099089B019C809F40A514A601A702A810A910AA81AD01C0FFC2ECC4FCCA34CCAECE6AD064D220D6F06E808640DA80E6400980634081809340AF40C240D840E48065
:40268000EE40182050105D408D40C608D404D604E00210011101000003000F4012300F4039310F406A320F4056330F4004400F4009410F4008430F4002600F400010F3008C
:4026C0000F08F0001C18E30008000000007F0000C3390044F3000C01FF01008041000000046700180C390042820000061C202C800F1FC04000802820000000013205040088
:402700000100CE000CFFFFFF62A0F0410C00000000000210040404040000000100000000000040020010301000101012000000000000000000000000000000000304050689
:402740000708090A0B0C0E0F101112131415161718191B1C1D1E1F2021222325262728292A2B2E2F303132333435000000000000000000001010101010101010181818189B
:40278000181818181C1C1C1C1C1C1C1C1E1E1E1E1E1E1E1E1F1F1F1F1F1F1F1F00000000000000000000000000000000430000202020202020202020282828282820202066
:4027C0002020202020202020202020202020208810101010101010101010101010101004040404040404040404101010101010104141414141410101010101010101010159
:40280000010101010101010101011010101010104242424242420202020202020202020202020202020202020202101010102000000000000000000000000000000000001A
:402840000000000000000000000000000000000000000000000000000000000000000000000000000000000000000000000000000000000000000000000000000000000058
:40288000000000000000000000000000000000000000000000000000000000000000000000000000000000000000000000000000F8B5C046F8BC08BC9E467047D50200007B
:4028C00055080000F8B5C046F8BC08BC9E467047AD020000E8280000C000002088000000D80000000000000000000000010000000000E02EC05D00001800000000366E01CD
:40290000040404000000000000000000000000000000000000000000000000000000000000000000AC270000000000000000000000000000000000000000000000000000B8
:40294000000000000000000000000000000000000000000000000000000000000000000000000000DC000020AE270000000000000000000000000000000000000000000086
:402980000000000000000000000000000000000000000000000000000000000000000000000000000000000000000000000000000000000000000000000000000000000017
:4029C00000000000000000000000000000000000000000000000000000000000000000000000000000000000000000000000000000000000000000000000000000000000D7
:402A00000000000000000000000000000000000000000000000000000000000000000000000000000000000000000000000000000000000000000000000000000000000096
:402A40000000000000000000000000000000000000000000000000000000000000000000000000000000000000000000000000000000000000000000000000000000000056
:0200000490303A
:02000000CC66CC
:0200000490402A
:200000000000000000000000000000000000000000000000000000000000000000000000E0
:0200000490501A
:0C000000000204C81193110104D4DDF9C2
:0200000490600A
:0100000001FE
:00000001FF